:040000000200F432D4
:03000B000200FBF5
:0300110002000EDC
:03000E000200B835
:20001400AD82AE83AFF0C2AF8D828E838FF0E5081204A8D2AF22C2AF753540D2AF8527E007
:2000340060FB20E7F815278525E060FB20E7F81525C2AF745AB535057535418005E535043C
:20005400F535E53B243DF8A635E53BFF04F53B7403B53B03753B00D2AF0525052680BE434A
:200074008920758DFA759850D28ED2998526E060FB20E7F815268525E060FB20E7F8152561
:20009400C2AF3099FDE53A243DF98799C299E53AFF04F53A7403B53A03753A00D2AF05250D
:2000B400052780C875080190002575F04012001475080090002675F04012001475080390AC
:2000D400002775F040120014753D20753E20753F20753A00753B0090002A120153020073AD
:0B00F4000200FF222222220203CE3273
:2000FF00E4F534F53575303F75314F75325F75336FF58975A882D28C9000B8120153858284
:20011F0021AF21BF3002800FBF3102800FBF3202800FBF3314800F853081800D853181803D
:20013F00088532818003853381D0D0D083D082D0F0D0E022C2AF740F5534FEE5357F00BEFB
:20015F000F07BF00047582FF22E53420E00D753C30433401E5358530238034E53420E10D43
:20017F00753C31433402E5358531238022E53420E30D753C32433404E5358532238010E580
:20019F003420E30B753C33433408E535853323858122852381C082C083E500C0E0C0E0C0EB
:2001BF00E0C0E0AF3CBF3002800FBF31028014BF32028019BF3328801E75D000C0D0858190
:2001DF0030801C75D008C0D0858131801275D010C0D0858132800875D018C0D0858133853E
:2001FF002281D2AF853C8222D310AF01C3C0D0C0E0C0F0C082C083C0D0AF21BF3002800FBC
:20021F00BF3102800FBF3202800FBF3314800F858130800D858131800885813280038581E4
:20023F00337433B521047E308008AD210DEDFE3395E08E21AF21BF3002800FBF3102801BBB
:20025F00BF32028027BF3349803374015534FEE5357F00BE01CBBF00C8803674025534FE9E
:20027F00E5357F00BE02BABF00B7802574045534FEE5357F00BE04A9BF00A6801474085564
:20029F0034FEE5357F00BE0805BF00028003020240AF21BF3002800FBF3102800FBF32025D
:2002BF00800FBF3314800F853081800D85318180088532818003853381D0D0D083D082D070
:2002DF00F0D0E0D0D092AF22D310AF01C3C0D0AF21BF3002800FBF31028012BF320280151A
:2002FF00BF3322801853340E753500801B53340D753500801353340B753500800B53340733
:20031F0075350080030203C97433B521047E308008AD210DEDFE3395E08E21AF21BF30022E
:20033F00800FBF3102801BBF32028027BF3349803374015534FEE5357F00BE01CBBF00C854
:20035F00803674025534FEE5357F00BE02BABF00B7802574045534FEE5357F00BE04A9BFDB
:20037F0000A6801474085534FEE5357F00BE0805BF00028003020327AF21BF3002800FBF3E
:20039F003102800FBF3202800FBF3314800F853081800D85318180088532818003853381EF
:2003BF00D0D0D083D082D0F0D0E0D0D092AF22C2AFC0E0C0F0C082C083C0D0AF21BF3002CF
:2003DF00800FBF3102800FBF3202800FBF3314800F858130800D858131800885813280039A
:2003FF008581337433B521047E308008AD210DEDFE3395E08E21AF21BF3002800FBF31028F
:20041F00801BBF32028027BF3349803374015534FEE5357F00BE01CBBF00C8803674025573
:20043F0034FEE5357F00BE02BABF00B7802574045534FEE5357F00BE04A9BF00A6801474CD
:20045F00085534FEE5357F00BE0805BF00028003020402AF21BF3002800FBF3102800FBFAE
:20047F003202800FBF3314800F853081800D85318180088532818003853381D0D0D083D0CC
:09049F0082D0F0D0E0D2AF32228D
:1B04A80020F71130F6138883A88220F509F6A8837583002280FEF280F5F02253
:00000001FF
