:0300000002007586
:03000600020003F2
:0300030002006494
:20000900753641E5374538600512017980F574012537F537E43538F538120179745AB5362C
:200029000575364180DDE53604F53680D6758920758DFA759850D28ED299E5374538700579
:2000490012017980F53099FD853699C299153774FFB53702153812017980DF753620E4F598
:1300690037F5389000091200C902003602007C222222226E
:20007C00E4F534F53575303F75314F75325F75336F9000641200C9858221AF21BF300280FF
:20009C000FBF3102800FBF3202800FBF3314800F853081800D8531818008853281800385DB
:2000BC003381D0D0D083D082D0F0D0E022740F5534FEE5357F00BE0F07BF00047582FF2247
:2000DC00E53420E00D753C30433401E5358530238034E53420E10D753C31433402E53585BE
:2000FC0031238022E53420E30D753C32433404E5358532238010E53420E30B753C33433461
:20011C0008E535853323858122852381C082C083E500C0E0C0E0C0E0C0E0AF3CBF3002802F
:20013C000FBF31028014BF32028019BF3328801E75D000C0D0858130801C75D008C0D085C1
:20015C008131801275D010C0D0858132800875D018C0D0858133852281853C8222C0E0C087
:20017C00F0C082C083C0D0AF21BF3002800FBF3102800FBF3202800FBF3314800F85813040
:20019C00800D858131800885813280038581337433B521047E308008AD210DEDFE3395E0DE
:2001BC008E21AF21BF3002800FBF3102801BBF32028027BF3349803374015534FEE5357F7A
:2001DC0000BE01CBBF00C8803674025534FEE5357F00BE02BABF00B7802574045534FEE52D
:2001FC00357F00BE04A9BF00A6801474085534FEE5357F00BE0805BF000280030201ABAFC3
:20021C0021BF3002800FBF3102800FBF3202800FBF3314800F853081800D85318180088582
:20023C0032818003853381D0D0D083D082D0F0D0E022AF21BF3002800FBF31028012BF3297
:20025C00028015BF3322801853340E753500801953340D753500801153340B7535008009D3
:20027C005334077535008001227433B521047E308008AD210DEDFE3395E08E21AF21BF30F4
:20029C0002800FBF3102801BBF32028027BF3349803374015534FEE5357F00BE01CBBF00BE
:2002BC00C8803674025534FEE5357F00BE02BABF00B7802574045534FEE5357F00BE04A976
:2002DC00BF00A6801474085534FEE5357F00BE0805BF00028003020285AF21BF3002800F85
:2002FC00BF3102800FBF3202800FBF3314800F853081800D85318180088532818003853355
:0C031C0081D0D0D083D082D0F0D0E0227D
:00000001FF
