:040000000200A73221
:03000B000200AE42
:0300110002000EDC
:03000E0002009657
:20001400D20010AF02C200753640A20092AFE537453870FAD20010AF02C20074012537F58B
:2000340037E43538F538A20092AF745AB53610D20010AF02C200753641A20092AF80CFD206
:200054000010AF02C200E53604F536A20092AF80BD438920758DFA759850D28ED299E53773
:20007400453860FA3099FD853699C299D20110AF02C201153774FFB537021538A20192AFEB
:1E00940080DC753620E4F537F5389000141201060200650200B22222222202038132D2
:2000B200E4F534F53575303F75314F75325F75336FF58975A882D28C900096120106858240
:2000D20021AF21BF3002800FBF3102800FBF3202800FBF3314800F853081800D853181808B
:2000F200088532818003853381D0D0D083D082D0F0D0E022C2AF740F5534FEE5357F00BE49
:200112000F07BF00047582FF22E53420E00D753C30433401E5358530238034E53420E10D90
:20013200753C31433402E5358531238022E53420E30D753C32433404E5358532238010E5CD
:200152003420E30B753C33433408E535853323858122852381C082C083E500C0E0C0E0C038
:20017200E0C0E0AF3CBF3002800FBF31028014BF32028019BF3328801E75D000C0D08581DD
:2001920030801C75D008C0D0858131801275D010C0D0858132800875D018C0D0858133858B
:2001B2002281D2AF853C8222D310AF01C3C0D0C0E0C0F0C082C083C0D0AF21BF3002800F09
:2001D200BF3102800FBF3202800FBF3314800F858130800D85813180088581328003858132
:2001F200337433B521047E308008AD210DEDFE3395E08E21AF21BF3002800FBF3102801B09
:20021200BF32028027BF3349803374015534FEE5357F00BE01CBBF00C8803674025534FEEB
:20023200E5357F00BE02BABF00B7802574045534FEE5357F00BE04A9BF00A68014740855B1
:2002520034FEE5357F00BE0805BF000280030201F3AF21BF3002800FBF3102800FBF3202F8
:20027200800FBF3314800F853081800D85318180088532818003853381D0D0D083D082D0BD
:20029200F0D0E0D0D092AF22D310AF01C3C0D0AF21BF3002800FBF31028012BF3202801567
:2002B200BF3322801853340E753500801B53340D753500801353340B753500800B53340780
:2002D200753500800302037C7433B521047E308008AD210DEDFE3395E08E21AF21BF3002C9
:2002F200800FBF3102801BBF32028027BF3349803374015534FEE5357F00BE01CBBF00C8A2
:20031200803674025534FEE5357F00BE02BABF00B7802574045534FEE5357F00BE04A9BF28
:2003320000A6801474085534FEE5357F00BE0805BF000280030202DAAF21BF3002800FBFD9
:200352003102800FBF3202800FBF3314800F853081800D853181800885328180038533813C
:20037200D0D0D083D082D0F0D0E0D0D092AF22C2AFC0E0C0F0C082C083C0D0AF21BF30021C
:20039200800FBF3102800FBF3202800FBF3314800F858130800D85813180088581328003E7
:2003B2008581337433B521047E308008AD210DEDFE3395E08E21AF21BF3002800FBF3102DC
:2003D200801BBF32028027BF3349803374015534FEE5357F00BE01CBBF00C88036740255C1
:2003F20034FEE5357F00BE02BABF00B7802574045534FEE5357F00BE04A9BF00A68014741B
:20041200085534FEE5357F00BE0805BF000280030203B5AF21BF3002800FBF3102800FBF49
:200432003202800FBF3314800F853081800D85318180088532818003853381D0D0D083D019
:0904520082D0F0D0E0D2AF3222DA
:00000001FF
