:040000000201433284
:03000B0002014AA5
:0300110002000EDC
:03000E00020101EB
:20001400AD82AE83AFF0C2AF8D828E838FF0E508120503D2AF22C2AF753540D2AF8527E0AB
:2000340060FB20E7F815278525E060FB20E7F81525C2AF745AB535057535418005E535043C
:20005400F535E53B243DF8A635E53BFF04F53B7403B53B03753B00D2AF0525052680BEC2CB
:20007400AF75362FD2AF8527E060FB20E7F815278525E060FB20E7F81525C2AF7439B53619
:20009400057536308005E53604F536E53B243DF8A636E53BFF04F53B7403B53B03753B00DB
:2000B400D2AF0525052680BE438920758DFA759850D28ED2998526E060FB20E7F815268563
:2000D40025E060FB20E7F81525C2AF3099FDE53A243DF98799C299E53AFF04F53A7403B5CB
:2000F4003A03753A00D2AF0525052780C875080190002575F040120014750800900026753B
:20011400F04012001475080390002775F040120014753A00753B00753D20753E20753F209B
:1A01340090002A1201A59000731201A50200BC02014E222222220204203295
:20014E00E4F534F53575303F75314F75325F75336FF58975A882D28C752831900101120176
:20016E00A5858221AF21BF3002800FBF3102800FBF3202800FBF3314800F853081800D8574
:20018E00318180088532818003853381D0D0D083D082D0F0D0E022C2AF740F5534FEE535B7
:2001AE007F00BE0F07BF00047582FF22E53420E00D753C30433401E5358530238034E534C5
:2001CE0020E10D753C31433402E5358531238022E53420E30D753C32433404E53585322398
:2001EE008010E53420E30B753C33433408E535853323858122852381C082C083E500C0E087
:20020E00C0E0C0E0C0E0AF3CBF3002800FBF31028014BF32028019BF3328801E75D000C0B6
:20022E00D0858130801C75D008C0D0858131801275D010C0D0858132800875D018C0D08551
:20024E008133852281D2AF853C8222D310AF01C3C0D0C0E0C0F0C082C083C0D0AF21BF30C4
:20026E0002800FBF3102800FBF3202800FBF3314800F858130800D8581318008858132800D
:20028E00038581337433B521047E308008AD210DEDFE3395E08E21AF21BF3002800FBF3100
:2002AE0002801BBF32028027BF3349803374015534FEE5357F00BE01CBBF00C88036740239
:2002CE005534FEE5357F00BE02BABF00B7802574045534FEE5357F00BE04A9BF00A680145F
:2002EE0074085534FEE5357F00BE0805BF00028003020292AF21BF3002800FBF3102800FDE
:20030E00BF3202800FBF3314800F853081800D85318180088532818003853381D0D0D0834F
:20032E00D082D0F0D0E0D0D092AF22D310AF01C3C0D0AF21BF3002800FBF31028012BF323F
:20034E00028015BF3322801853340E753500801B53340D753500801353340B753500800BDA
:20036E00533407753500800302041B7433B521047E308008AD210DEDFE3395E08E21AF21EF
:20038E00BF3002800FBF3102801BBF32028027BF3349803374015534FEE5357F00BE01CB9B
:2003AE00BF00C8803674025534FEE5357F00BE02BABF00B7802574045534FEE5357F00BE71
:2003CE0004A9BF00A6801474085534FEE5357F00BE0805BF00028003020379AF21BF30027F
:2003EE00800FBF3102800FBF3202800FBF3314800F853081800D853181800885328180038B
:20040E00853381D0D0D083D082D0F0D0E0D0D092AF22C2AFC0E0C0F0C082C083C0D0AF2137
:20042E00BF3002800FBF3102800FBF3202800FBF3314800F858130800D858131800885810E
:20044E003280038581337430B5210280057521308010852821E52804F5287433B528037551
:20046E002831AF21BF3002800FBF3102801BBF32028027BF3349803374015534FEE5357F1B
:20048E0000BE01C2BF00BF803674025534FEE5357F00BE02B1BF00AE802574045534FEE59C
:2004AE00357F00BE04A0BF009D801474085534FEE5357F00BE0805BF00028003020454AF74
:2004CE0021BF3002800FBF3102800FBF3202800FBF3314800F853081800D853181800885CE
:1504EE0032818003853381D0D0D083D082D0F0D0E0D2AF322200
:1B05030020F71130F6138883A88220F509F6A8837583002280FEF280F5F022F7
:00000001FF
